:020000040000FA
:04000000DDEF2EF012
:105B4400056E0550A1EC2FF0120061616161616185
:105B5400616130303030066E06C002F0680E97EC9A
:105B640030F01200C580C5B0BAEF2DF0BCEF2DF0B7
:105B7400B5EF2DF01200C584C5B4C3EF2DF0C5EF09
:105B84002DF0BEEF2DF01200C582C5B2CCEF2DF082
:105B9400CEEF2DF0C7EF2DF01200C58AC588C5B829
:105BA400D6EF2DF0D8EF2DF0D1EF2DF01200016ECD
:105BB40001C0ADFFACA2E1EF2DF0E3EF2DF0DCEF7F
:105BC4002DF01200948C948E190EAF6EB896AC849E
:105BD400AC98AC8AAB8EAB881200C5BCF4EF2DF048
:105BE400F6EF2DF0F9EF2DF0010EFAEF2DF0000E87
:025BF40012009D
:105BF7003031323334353637383930313233343562
:105C070036373839616161616161616150016EA642
:105C1700B210EF2EF012EF2EF00BEF2EF001C0A90D
:105C2700FFA69EA69CA680A8CF02F00250120001F4
:105C37006E01C0C9FFC7B023EF2EF025EF2EF01E6F
:105C4700EF2EF0C7B42AEF2EF02CEF2EF025EF2E13
:105C5700F012006E0E036E34EF2EF042EC35F003B7
:105C67006E6E0E0318D8B43BEF2EF03DEF2EF031D9
:105C7700EF2EF003501200A60EE82EFED700D07EBE
:105C8700C0D9FF7FC0DAFFDF84A60EE82EFED7005B
:105C9700D07EC0D9FF7FC0DAFFDF9412002A0E2C16
:105CA7006E000E2D6E000E206E000E216E28C02293
:105CB700F029C023F02C0E246E000E256E0BEC2F5E
:105CC700F01200C7A46AEF2EF06CEF2EF06FEF2EE4
:105CD700F0000E7DEF2EF0C5CF01F01F0E0116D894
:105CE700B478EF2EF07AEF2EF07CEF2EF06CEF2EDB
:105CF700F0010E12008AEF2EF002C0F6FF03C0F784
:105D0700FF0800F550D9EC2DF0024A032A02C0F62D
:105D1700FF03C0F7FF0800F5500009D8A496EF2E3F
:105D2700F098EF2EF080EF2EF01200026E000EF2C8
:105D3700BE010E036EA6B2A3EF2EF0A5EF2EF09EC6
:105D4700EF2EF001C0A9FF02C0A8FFA69EA69CA641
:105D570084F29E550EA76EAA0EA76EA68203B00206
:105D6700D0F29E01D0F28EA6941200C586C5B6BFAA
:105D7700EF2EF0C1EF2EF0BAEF2EF0C7A0C6EF2E30
:105D8700F0C8EF2EF0C1EF2EF000F000F000F000A9
:105D9700F000F000F000F000F000F000F000F0007C
:105DA700F000F000F000F000F000F0C9CF01F001C2
:105DB7005012004E0EF66E5B0EF76E000EF86E0078
:105DC700EEEFF010EE0CF00900F5CFEEFFE550E135
:105DD70050FAE1F70EF66E5B0EF76E000EF86E00E6
:105DE700EE61F010EE1DF00900F5CFEEFFE550E192
:105DF70050FAE10001FC6BFB6B00EE34F02D0EEE68
:105E07006AE806FDE1000EF86E0001B0EF36F022F9
:105E1700C026F023C027F0000E556E000E546E27E3
:105E2700EF2FF020C017F021C018F0260E196E00D2
:105E37000E1A6E24C01BF025C01CF02DEC33F01792
:105E47005054261850552226C0F6FF27C0F7FF08E2
:105E570000F5500009D8A433EF2FF035EF2FF015D8
:105E6700EF2FF054C020F055C021F01200000E951E
:105E77006E830E7E6E0F0E7F6E7EC0D9FF7FC0DAF7
:105E8700FFDF947EC0D9FF7FC0DAFFDF907EC0D9E5
:105E9700FF7FC0DAFFDF92000E956E7EC0D9FF7FCD
:105EA700C0DAFFDF500F0B2009DF6E3FEC2EF03416
:105EB700EC31F0280E6DEC2FF0060E6DEC2FF00E86
:105EC7000E6DEC2FF0180E6DEC2FF0010E6DEC2F10
:105ED700F01200046E7EC0D9FF7FC0DAFFDF907E2C
:105EE700C0D9FF7FC0DAFFDF9204C003F0033A0F87
:105EF7000E03167EC0D9FF7FC0DAFF033ADF5003D7
:105F0700180F0B0318DF6E3FEC2EF07EC0D9FF7F12
:105F1700C0DAFFDF9004C003F00F0E03167EC0D96E
:105F2700FF7FC0DAFF033ADF5003180F0B0318DFB8
:105F37006E3FEC2EF034EC31F01200046E7EC0D9C7
:105F4700FF7FC0DAFFDF807EC0D9FF7FC0DAFFDFC7
:105F57009204C003F0033A0F0E03167EC0D9FF7FE9
:105F6700C0DAFF033ADF5003180F0B0318DF6E3F49
:105F7700EC2EF07EC0D9FF7FC0DAFFDF8004C003BC
:105F8700F00F0E03167EC0D9FF7FC0DAFF033ADF9A
:105F97005003180F0B0318DF6E3FEC2EF034EC3173
:105FA700F01200046E65EC2EF0056E0550D8A4DFE4
:105FB700EF2FF0E1EF2FF0E5EF2FF0BDEC2DF00F15
:105FC700EF30F0B4EC2DF004500424606E60501BE9
:105FD700EC2EF0EFEC2DF00009D8A4F5EF2FF0F739
:105FE700EF2FF0F9EF2FF0E1EF2FF002501BEC2E1F
:105FF700F0EFEC2DF00009D8A404EF30F006EF30F5
:10600700F008EF30F0E1EF2FF003501BEC2EF0EF2C
:10601700EC2DF0E1EF2FF01200066E0550D8A41713
:10602700EF30F019EF30F01FEF30F00650800F6DB2
:10603700EC2FF04BEF30F00504D8A425EF30F02714
:10604700EF30F02DEF30F00650C00F6DEC2FF04B16
:10605700EF30F0020E0518D8A434EF30F036EF30E9
:10606700F03CEF30F00650940F6DEC2FF04BEF3013
:10607700F0030E0518D8A443EF30F045EF30F04B8E
:10608700EF30F00650D40F6DEC2FF04BEF30F012DD
:106097000008500910D8B453EF30F055EF30F05ED8
:1060A700EF30F008500910D8A45CEF30F05EEF3005
:1060B700F063EF30F00650A2EC2DF096EF30F020B1
:1060C700EE04F00850D9260950DA22DE50DE10D847
:1060D700B470EF30F072EF30F08DEF30F020EE0457
:1060E700F00850D9260950DA2210EE02F00850E1E4
:1060F700260950E222DE50E65CE650800A0E6EDE8C
:1061070050800A0E58D8B08BEF30F08DEF30F096F4
:10611700EF30F020EE02F00850D9260950DA22DEDF
:106127002A000EDD221200056E65EC2EF0036E03C9
:1061370050D8A4A1EF30F0A3EF30F0A8EF30F0BDB6
:10614700EC2DF0FF0EE4EF30F0B4EC2DF0D8900515
:106157003605501BEC2EF0EFEC2DF00009D8A4B754
:10616700EF30F0B9EF30F0BBEF30F0A3EF30F002D3
:10617700501BEC2EF0EFEC2DF00009D8A4C6EF3041
:10618700F0C8EF30F0CAEF30F0A3EF30F0C6EC2DD7
:10619700F0055001091BEC2EF0EFEC2DF00009D8AB
:1061A700A4D8EF30F0DAEF30F0DCEF30F0A3EF30C7
:1061B700F0B9EC2EF0046ECFEC2DF0BDEC2DF00411
:1061C700501200036E65EC2EF0046E0450D8A4EF55
:1061D700EF30F0F1EF30F0F6EF30F0BDEC2DF0FFDF
:1061E7000E33EF31F0B4EC2DF003500324606E60F2
:1061F700501BEC2EF0EFEC2DF00009D8A406EF3180
:10620700F008EF31F00AEF31F0F1EF30F002501BF8
:10621700EC2EF0EFEC2DF00009D8A415EF31F017B4
:10622700EF31F019EF31F0F1EF30F0C6EC2DF060FF
:106237008060501BEC2EF0EFEC2DF00009D8A4275E
:10624700EF31F029EF31F02BEF31F0F1EF30F0B90A
:10625700EC2EF0056ECFEC2DF0BDEC2DF0055012B5
:10626700000268F00E956E7EC0D9FF7FC0DAFFDFAF
:10627700907EC0D9FF7FC0DAFFDF8279EF31F07EF1
:10628700C0D9FF7FC0DAFFDF84A60EE82EFED70055
:10629700D07EC0D9FF7FC0DAFFDF94A60EE82EFEBE
:1062A700D700D07EC0D9FF7FC0DAFFDF380F0B01E0
:1062B7006E0138F00B026E7EC0D9FF7FC0DAFFDFB8
:1062C70084A60EE82EFED700D07EC0D9FF7FC0DAA5
:1062D700FFDF94A60EE82EFED700D07EC0D9FF7F41
:1062E700C0DAFFDF380F0B0210026E02BE7EEF31FD
:1062F700F080EF31F043EF31F07EC0D9FF7FC0DA95
:10630700FFDF92000E956E120020EE6BF010EE0C80
:10631700F0090EDBCFE3FFE806FCE2000E176E0084
:106327000E166E000E196E020E186E1850ADEC2D7B
:10633700F0096E09380F0B0A6E0B6A0C0E0A24D986
:106347006E000E0B20DA6E16500724E16E17500808
:1063570020E26EDFCFE7FF164A172A1850ADEC2D63
:10636700F00F0B096E0A6A0C0E0924D96E000E0A8B
:1063770020DA6E16500724E16E17500820E26EDF10
:10638700CFE7FF164A172A19BED2EF31F019500886
:10639700E11804D8A0D2EF31F0D4EF31F0DCEF31BF
:1063A700F016500724D96E17500820DA6E3A0EDF20
:1063B7006E164A172A1806D8A0190619BEE8EF3133
:1063C700F0E6EF31F099EF31F0120020EE61F010B6
:1063D700EE0CF0090EDBCFE3FFE806FCE2000E1738
:1063E7006E000E166E000E196E040E186E1850AD64
:1063F700EC2DF0096E09380F0B0A6E0B6A0C0E0AAA
:1064070024D96E000E0B20DA6E16500724E16E17A2
:10641700500820E26EDFCFE7FF164A172A1850AD63
:10642700EC2DF00F0B096E0A6A0C0E0924D96E00C9
:106437000E0A20DA6E16500724E16E17500820E284
:106447006EDFCFE7FF164A172A19BE36EF32F0196B
:106457005007E1060E185CD8B034EF32F036EF3251
:10646700F03EEF32F016500724D96E17500820DAA5
:106477006E2F0EDF6E164A172A184A192A19BE4EB2
:10648700EF32F0195009E1070E185CD8A04EEF3231
:10649700F050EF32F0FAEF31F0120056505710D8A3
:1064A700A458EF32F05AEF32F060EF32F056C015D1
:1064B700F057C016F066EF32F0FF0E5624156EFF48
:1064C7000E5720166E5AA06BEF32F06DEF32F07652
:1064D700EF32F011C006F0076A0FC008F010C009CC
:1064E700F04CEC30F016BE7BEF32F07DEF32F07FF0
:1064F700EF32F083EF32F0000E166E000E156E00CD
:106507000E146E000E136E95EF32F0000E076E201C
:106517000E066E0FC008F010C009F04CEC30F013F7
:106527004A142A1550135C1450800A126E165080B4
:106537000A1258D8A0A2EF32F0A4EF32F089EF3256
:10654700F05AB0A9EF32F0ABEF32F0B4EF32F011FE
:10655700C006F0076A0FC008F010C009F04CEC3015
:10656700F0010E13240F6E000E1420106E1200009F
:106577000E0A6E140E096E1DEF33F009C002F050BB
:106587000EE5EC30F00B6E430E0B18D8A4CEEF32AD
:10659700F0D0EF32F0D8EF32F0430E026E7E0E03EA
:1065A7006E7EEC2EF01BEF33F04C0E0B18D8A4DFE9
:1065B700EF32F0E1EF32F0E9EF32F05B0E026E7E80
:1065C7000E036E7EEC2EF01BEF33F0450E0B18D842
:1065D700A4F0EF32F0F2EF32F0FAEF32F02B0E02C6
:1065E7006E7E0E036E7EEC2EF01BEF33F00B50D851
:1065F700A400EF33F002EF33F00AEF33F0410E025D
:106607006E7E0E036E7EEC2EF01BEF33F07C0E0BCE
:1066170018D8A411EF33F013EF33F018EF33F00D60
:106627000ED9EC2DF01BEF33F00B50D9EC2DF00900
:106637004A0A2A0650095C0A50800A086E075080E9
:106647000A0858D8A02AEF33F02CEF33F0C1EF3205
:10665700F0120019C0D9FF1AC0DAFFDECFF6FFDD4E
:10666700CFF7FF0800F550250AD8A43DEF33F03FD8
:10667700EF33F0BFEF33F019C0D9FF1AC0DAFFDEEE
:106687002A000EDD22000E576E000E566E56C05AB7
:10669700F057C05BF05868596819C0D9FF1AC0DABB
:1066A700FFDECFF6FFDDCFF7FF0800F550630AD80E
:1066B700A460EF33F062EF33F089EF33F019C0D9FC
:1066C700FF1AC0DAFFDE2A000EDD221BC0D9FF1C2D
:1066D700C0DAFFDFCF1DF0020EDE26DFCF1EF0008F
:1066E7000EDD221DC0D9FF1EC0DAFFDF501F6E1757
:1066F700C00FF018C010F01FC011F051EC32F00FAE
:10670700C017F010C018F0DAEF33F019C0D9FF1A2C
:10671700C0DAFFDECFF6FFDDCFF7FF0800F5502523
:106727000AD8A499EF33F09BEF33F0B2EF33F019A7
:10673700C0D9FF1AC0DAFFDE2A000EDD22000E07DD
:106747006E250E066E17C008F018C009F04CEC3025
:10675700F0000E186E010E176EDAEF33F019C0D97C
:10676700FF1AC0DAFFDE2A000EDD22000E186E00C7
:106777000E176EDAEF33F019C0D9FF1AC0DAFFDE51
:10678700CFF6FFDDCFF7FF0800F550066E076A1753
:10679700C008F018C009F04CEC30F019C0D9FF1A46
:1067A700C0DAFFDE2A000EDD22ACEF33F012000064
:1067B7000E026E500EE5EC30F05F6E010E026E5069
:1067C7000EE5EC30F05E6E020E026E500EE5EC3018
:1067D700F05D6E030E026E500EE5EC30F05C6E0657
:1067E700C0D9FF07C0DAFF5F50DE18D8A4FEEF3329
:1067F700F000EF34F035EF34F020EE01F00650D919
:10680700260750DA225E50DE18D8A40DEF34F00FB9
:10681700EF34F035EF34F020EE02F00650D92607BA
:1068270050DA225D50DE18D8A41CEF34F01EEF3486
:10683700F035EF34F020EE03F00650D9260750DA92
:10684700225C50DE18D8A42BEF34F02DEF34F0354E
:10685700EF34F0000E0001FC6F000EFB6F690E4174
:10686700EF35F0040E026E500EE5EC30F05F6E056A
:106877000E026E500EE5EC30F05E6E060E026E50A4
:106887000EE5EC30F05D6E070E026E500EE5EC3053
:10689700F05C6E06C0D9FF07C0DAFF5F50DE18D87C
:1068A700A458EF34F05AEF34F08EEF34F020EE01B5
:1068B700F00650D9260750DA225E50DE18D8A467B2
:1068C700EF34F069EF34F08EEF34F020EE02F0068B
:1068D70050D9260750DA225D50DE18D8A476EF3457
:1068E700F078EF34F08EEF34F020EE03F00650D955
:1068F700260750DA225C50DE18D8A485EF34F087DB
:10690700EF34F08EEF34F0000E0001FC6F040EFB45
:106917006F32EF34F0080E026E500EE5EC30F05F88
:106927006E090E026E500EE5EC30F05E6E0A0E0236
:106937006E500EE5EC30F05D6E0B0E026E500EE5FC
:10694700EC30F05C6E06C0D9FF07C0DAFF5F50DE9F
:1069570018D8A4B1EF34F0B3EF34F0E7EF34F020F8
:10696700EE01F00650D9260750DA225E50DE18D81D
:10697700A4C0EF34F0C2EF34F0E7EF34F020EE02BA
:10698700F00650D9260750DA225D50DE18D8A4CF7A
:10699700EF34F0D1EF34F0E7EF34F020EE03F006F8
:1069A70050D9260750DA225C50DE18D8A4DEEF341F
:1069B700F0E0EF34F0E7EF34F0000E0001FC6F0871
:1069C7000EFB6F32EF34F00C0E026E500EE5EC301A
:1069D700F05F6E0D0E026E500EE5EC30F05E6E0E3F
:1069E7000E026E500EE5EC30F05D6E0F0E026E502B
:1069F7000EE5EC30F05C6E06C0D9FF07C0DAFF5F2A
:106A070050DE18D8A40AEF35F00CEF35F040EF351B
:106A1700F020EE01F00650D9260750DA225E50DE4C
:106A270018D8A419EF35F01BEF35F040EF35F020FB
:106A3700EE02F00650D9260750DA225D50DE18D84C
:106A4700A428EF35F02AEF35F040EF35F020EE03BC
:106A5700F00650D9260750DA225C50DE18D8A43742
:106A6700EF35F039EF35F040EF35F0000E0001FC5F
:106A77006F0C0EFB6F32EF34F0640E1200819081C1
:106A8700828184818681B84BEF35F04DEF35F06315
:106A9700EF35F0020E026E040E016EBA0EE82EFEFE
:106AA700D7012EFCD7022EFAD700D081A85EEF358A
:106AB700F060EF35F059EF35F02A0EAFEF36F08181
:106AC700BA68EF35F06AEF35F080EF35F0020E0265
:106AD7006E040E016EBA0EE82EFED7012EFCD70209
:106AE7002EFAD700D081AA7BEF35F07DEF35F0760F
:106AF700EF35F0300EAFEF36F081BC85EF35F0871C
:106B0700EF35F09DEF35F0020E026E040E016EBAFE
:106B17000EE82EFED7012EFCD7022EFAD700D08121
:106B2700AC98EF35F09AEF35F093EF35F0230EAFD1
:106B3700EF36F0818081928184818681B8A6EF3516
:106B4700F0A8EF35F0BEEF35F0020E026E040E012D
:106B57006EBA0EE82EFED7012EFCD7022EFAD7000A
:106B6700D081A8B9EF35F0BBEF35F0B4EF35F0378A
:106B77000EAFEF36F081BAC3EF35F0C5EF35F0DB76
:106B8700EF35F0020E026E040E016EBA0EE82EFE0D
:106B9700D7012EFCD7022EFAD700D081AAD6EF351F
:106BA700F0D8EF35F0D1EF35F0380EAFEF36F08192
:106BB700BCE0EF35F0E2EF35F0F8EF35F0020E020A
:106BC7006E040E016EBA0EE82EFED7012EFCD70218
:106BD7002EFAD700D081ACF3EF35F0F5EF35F0EEB4
:106BE700EF35F0390EAFEF36F081808182819481E5
:106BF7008681B801EF36F003EF36F019EF36F00271
:106C07000E026E040E016EBA0EE82EFED7012EFCA0
:106C1700D7022EFAD700D081A814EF36F016EF3638
:106C2700F00FEF36F0340EAFEF36F081BA1EEF36C5
:106C3700F020EF36F036EF36F0020E026E040E014A
:106C47006EBA0EE82EFED7012EFCD7022EFAD70019
:106C5700D081AA31EF36F033EF36F02CEF36F0352E
:106C67000EAFEF36F081BC3BEF36F03DEF36F05319
:106C7700EF36F0020E026E040E016EBA0EE82EFE1B
:106C8700D7012EFCD7022EFAD700D081AC4EEF36B3
:106C9700F050EF36F049EF36F0360EAFEF36F081B1
:106CA7008081828184819681B85CEF36F05EEF3611
:106CB700F074EF36F0020E026E040E016EBA0EE8A3
:106CC7002EFED7012EFCD7022EFAD700D081A86F4F
:106CD700EF36F071EF36F06AEF36F0310EAFEF3680
:106CE700F081BA79EF36F07BEF36F091EF36F002AC
:106CF7000E026E040E016EBA0EE82EFED7012EFCB0
:106D0700D7022EFAD700D081AA8CEF36F08EEF3655
:106D1700F087EF36F0320EAFEF36F081BC96EF36E4
:106D2700F098EF36F0AEEF36F0020E026E040E0169
:106D37006EBA0EE82EFED7012EFCD7022EFAD70028
:106D4700D081ACA9EF36F0ABEF36F0A4EF36F033D5
:106D57000EAFEF36F06E0E12000F0EC16E939093CA
:106D670092939493969388938A938C938EF19E949F
:106D7700909492949494869488949A280EC66E134D
:106D87000EC86E800EC76E3AEC2FF0E4EC2DF0F7CC
:106D9700C0B5F0F8C0B6F0F9C0B7F0FAC0B8F0F374
:106DA700C0D7F0F4C0D8F0F5C0D9F0F6C0DAF0EFEC
:106DB700C0ADF0F0C0AEF0F1C0AFF0F2C0B0F07906
:106DC700C0B1F07AC0B2F07BC0B3F07CC0B4F0754C
:106DD700C0DDF076C0DEF077C0DFF078C0E0F0000D
:106DE7000E0001ED6F000EEC6F000EA86F000EA7EE
:106DF7006F000EE26F000EE16F000EAA6F000EA982
:106E07006F010E0AEC2EF02E6E2E500001E16FE29C
:106E17006B000E0AEC2EF02E6E2E500001DB6FDC9D
:106E27006B020E0AEC2EF02E6E2E500001EA6FEB6D
:106E37006B81BE21EF37F023EF37F029EF37F0EA08
:106E4700C006F0EBC007F0BBEC32F0829A8290826A
:106E5700928294010E6DEC2FF0000E056E000E105D
:106E6700EC30F03A0E286E7F0E296E52EC2EF001B0
:106E77000E056E000E10EC30F0B10E286E7F0E2955
:106E87006E52EC2EF0020E056E000E10EC30F0E89C
:106E97000E286E7F0E296E52EC2EF0030E056E0043
:106EA7000E10EC30F0F20E286E7F0E296E52EC2E8B
:106EB700F02DEC2EF00001EE6FF8EF3EF0010E6DB5
:106EC700EC2FF0010E056E020E10EC30F0180E28B4
:106ED7006E7F0E296E52EC2EF0020E056E080E1014
:106EE700EC30F08FEF37F02DEC2EF00001EE6FFC59
:106EF7000E286E7F0E296EEEC02AF02B6A52EC2EFA
:106F0700F0D70E0001EC25D96E000EED21DA6EEEFA
:106F1700C0DFFFEC4BED2B610E0001DA19D8B497F7
:106F2700EF37F099EF37F077EF37F00B0E2F6E262C
:106F37000E2E6E5E0EE82EFED72E2EFCD72F2EFAC3
:106F4700D7D70E066E000E076EDBEC33F00001E9B3
:106F57006FB551D719D8A4B3EF37F0B5EF37F01C99
:106F6700EF38F0B651D819D8A4BCEF37F0BEEF37D9
:106F7700F01CEF38F0B751D919D8A4C5EF37F0C7CF
:106F8700EF37F01CEF38F0B851DA19D8A4CEEF3745
:106F9700F0D0EF37F01CEF38F0010E6DEC2FF00159
:106FA7000E056E040E10EC30F0BD0E286E7F0E2914
:106FB7006E52EC2EF0020E056E040E10EC30F0DE71
:106FC7000E286E7F0E296E52EC2EF08282000E0084
:106FD70001BA6F000EB96FBABFFBEF37F0BA5109AC
:106FE700E1040EB95DD8A0FBEF37F0FDEF37F0FFF6
:106FF700EF37F00BEF38F0D70EB925D96E000EBA80
:1070070021DA6E610EDF6EB94BBA2BEFEF37F00066
:107017000EED6F000EEC6F0B0E2F6E260E2E6E5EB2
:107027000EE82EFED72E2EFCD72F2EFAD704EF37D9
:10703700F0E2BF2AEF38F0E25107E1040EE15DD834
:10704700B028EF38F02AEF38F03BEF39F0640EE95B
:1070570019D8A431EF38F033EF38F03BEF39F09D12
:107067000E076E000E086EE9EC31F0940E076E0005
:107077000E086E88EC31F0430E0001806F000EE4BD
:107087006F010EE36FE4BF52EF38F0E45109E10AF4
:107097000EE35DD8A052EF38F054EF38F056EF38D2
:1070A700F094EF38F0FF0E2E6EFF0E2F6EE3C03018
:1070B700F0E4C031F02E5030262F5031229D0E3093
:1070C70024D96E000E3120DA6E800EE325E16E00C2
:1070D7000EE421E26EDFCFE7FFFF0E2E6EFF0E2FCD
:1070E7006EE3C030F0E4C031F02E5030262F50311F
:1070F70022940E3024D96E000E3120DA6E090EE389
:1071070025326E000EE421336E800E3224E16E00CC
:107117000E3320E26EDFCFE7FFE34BE42B46EF3879
:10712700F07C0E936F000EBC6F000EBB6FBCBFA64A
:10713700EF38F0BC5109E1040EBB5DD8A0A6EF38CB
:10714700F0A8EF38F0AAEF38F0C7EF38F0DBC0024D
:10715700F0D70EBB25D96E000EBC21DA6EDF5003C7
:107167006E500ED5EC2FF00001DB4BDC2B1A0E2EE8
:107177006EF80EE82EFED72E2EFCD700D00001BBEE
:107187004BBC2B9AEF38F0000EBE6F000EBD6FBEE2
:10719700BFD7EF38F0BE5109E1140EBD5DD8A0D7B7
:1071A700EF38F0D9EF38F0DBEF38F0F8EF38F0EAE6
:1071B700C002F0800EBD25D96E000EBE21DA6EDF4B
:1071C70050036E500ED5EC2FF00001EA4BEB2B1A53
:1071D7000E2E6EF80EE82EFED72E2EFCD700D0000E
:1071E70001BD4BBE2BCBEF38F0E14BE22B000E017C
:1071F7006EDB5199EC2EF0010E016E0001E1519901
:10720700EC2EF0020E016E0001EA5199EC2EF0010E
:107217000E6DEC2FF0010E056E020E10EC30F0072C
:107227000E286E7F0E296E52EC2EF08280000E0023
:1072370001C06F000EBF6FC0BF2BEF39F0C05109FF
:10724700E1040EBF5DD8A02BEF39F02DEF39F02FF9
:10725700EF39F00BEF38F0D70EBF25D96E000EC00F
:1072670021DA6E610EDF6EBF4BC02B1FEF39F0695D
:107277000EE919D8A442EF39F044EF39F08DEF3910
:10728700F0E2BF52EF39F0E25107E1030EE15DD8BA
:10729700B050EF39F052EF39F08DEF39F0010E6D44
:1072A700EC2FF0010E056E040E10EC30F0BD0E2829
:1072B7006E7F0E296E52EC2EF0020E056E040E1034
:1072C700EC30F0DE0E286E7F0E296E52EC2EF08227
:1072D70082000E0001C26F000EC16FC2BF7DEF3981
:1072E700F0C25109E1040EC15DD8A07DEF39F07FEE
:1072F700EF39F081EF39F00BEF38F0D70EC125D910
:107307006E000EC221DA6E610EDF6EC14BC22B71A9
:10731700EF39F0040EE119E211D8A495EF39F0978F
:10732700EF39F0D2EF39F0010E6DEC2FF0010E05B9
:107337006E010E10EC30F0BF0E286E7E0E296E52D5
:10734700EC2EF0020E056E010E10EC30F05A0E28EE
:107357006E7F0E296E52EC2EF08282000E0001C461
:107367006F000EC36FC4BFC2EF39F0C45109E10407
:107377000EC35DD8A0C2EF39F0C4EF39F0C6EF39BC
:10738700F00BEF38F0D70EC325D96E000EC421DA03
:107397006E610EDF6EC34BC42BB6EF39F0010E6D75
:1073A700EC2FF0010E056E020E10EC30F0D20E2815
:1073B7006E7E0E296E52EC2EF0020E056E080E1030
:1073C700EC30F0FFEF39F02DEC2EF00001EE6FFC02
:1073D7000E286E7F0E296EEEC02AF02B6A52EC2E15
:1073E700F0AD0E0001EC25D96E000EED21DA6EEE40
:1073F700C0DFFFEC4BED2B610E0001B019D8B407CD
:10740700EF3AF009EF3AF0E7EF39F00B0E2F6E265F
:107417000E2E6E5E0EE82EFED72E2EFCD72F2EFADE
:10742700D7010E6DEC2FF0AD0E066E000E076EDB6A
:10743700EC33F00001E96F690EE919D8A426EF3A99
:10744700F028EF3AF0F6EF3AF09D0E076E000E08BF
:107457006EE9EC31F0940E076E000E086E88EC3181
:10746700F04C0E0001806F000EE66F010EE56FE62F
:10747700BF47EF3AF0E65109E10A0EE55DD8A047AC
:10748700EF3AF049EF3AF04BEF3AF089EF3AF0FF75
:107497000E2E6EFF0E2F6EE5C030F0E6C031F02ED7
:1074A7005030262F5031229D0E3024D96E000E31D8
:1074B70020DA6E800EE525E16E000EE621E26EDF32
:1074C700CFE7FFFF0E2E6EFF0E2F6EE5C030F0E602
:1074D700C031F02E5030262F503122940E3024D94F
:1074E7006E000E3120DA6E090EE525326E000EE6CB
:1074F70021336E800E3224E16E000E3320E26EDF00
:10750700CFE7FFE54BE62B3BEF3AF07C0E936F009E
:107517000EC66F000EC56FC6BF9BEF3AF0C6510986
:10752700E1140EC55DD8A09BEF3AF09DEF3AF09FAE
:10753700EF3AF0BCEF3AF0EAC002F0800EC525D969
:107547006E000EC621DA6EDF50036E500ED5EC2F9B
:10755700F00001EA4BEB2B1A0E2E6EF80EE82EFE0A
:10756700D72E2EFCD700D00001C54BC62B8FEF3A84
:10757700F0020E016EEA5199EC2EF0010E056E0233
:107587000E10EC30F0E40E286E7E0E296E52EC2EB3
:10759700F08280000E0001ED6F000EEC6F000EA868
:1075A7006F000EA76F000EC86F000EC76FC8BFE64B
:1075B700EF3AF0C85109E1040EC75DD8A0E6EF3AEB
:1075C700F0E8EF3AF0EAEF3AF00FEF38F0AD0EC718
:1075D70025D96E000EC821DA6E610EDF6EC74BC863
:1075E7002BDAEF3AF0640EE919D8A4FDEF3AF0FF71
:1075F700EF3AF023EF3CF0010E056E020E10EC306F
:10760700F04A0E286E7F0E296E52EC2EF082820011
:107617000E0001ED6F000EEC6FA74BA82B000ECAF2
:107627006F000EC96FCABF22EF3BF0CA5109E104D0
:107637000EC95DD8A022EF3BF024EF3BF026EF3BCD
:10764700F032EF3BF0AD0EC925D96E000ECA21DA34
:107657006E610EDF6EC94BCA2B16EF3BF00B0E2F78
:107667006E260E2E6E5E0EE82EFED72E2EFCD72F20
:107677002EFAD7030E0001A719A811D8A446EF3B8D
:10768700F048EF3BF004EF37F0000E056E020E10E6
:10769700EC30F0290E286E7F0E296E52EC2EF00189
:1076A7000E056E010E10EC30F0AC0E286E7E0E2922
:1076B7006E52EC2EF0020E056E010E10EC30F084C7
:1076C7000E286E7E0E296E52EC2EF0030E056E020A
:1076D7000E10EC30F0F60E286E7E0E296E52EC2E50
:1076E700F0000E0001A86F000EA76F828A82821534
:1076F7000E2F6E4B0E2E6EBE0EE82EFED72E2EFCD4
:10770700D72F2EFAD700D0010E6DEC2FF0000E0503
:107717006E010E10EC30F0980E286E7E0E296E5218
:10772700EC2EF0010E056E010E10EC30F0A40E28C1
:107737006E7F0E296E52EC2EF0020E056E080E10AB
:10774700EC30F0BFEF3BF02DEC2EF00001EE6FFCBC
:107757000E286E7F0E296EEEC02AF02B6A52EC2E91
:10776700F0DD0E0001EC25D96E000EED21DA6EEE8C
:10777700C0DFFFEC4BED2B610E0001E019D8B4C759
:10778700EF3BF0C9EF3BF0A7EF3BF0000EED6F00CA
:107797000EEC6FB551DD19D8A4D4EF3BF0D6EF3B13
:1077A700F011EF3FF0B651DE19D8A4DDEF3BF0DF63
:1077B700EF3BF011EF3FF0B751DF19D8A4E6EF3BED
:1077C700F0E8EF3BF011EF3FF0B851E019D8A4EF24
:1077D700EF3BF0F1EF3BF011EF3FF0010E6DEC2FB7
:1077E700F0010E056E020E10EC30F06A0E286E7F67
:1077F7000E296E52EC2EF08280829A8292000E0041
:1078070001CC6F000ECB6FCCBF13EF3CF0CC51090E
:10781700E1040ECB5DD8A013EF3CF015EF3CF01759
:10782700EF3CF00FEF38F0DD0ECB25D96E000ECC14
:1078370021DA6E610EDF6ECB4BCC2B07EF3CF001EC
:107847000E6DEC2FF0000E056E010E10EC30F09867
:107857000E286E7E0E296E52EC2EF0010E056E017B
:107867000E10EC30F0790E286E7F0E296E52EC2E3A
:10787700F0020E056E080E10EC30F05BEF3CF02DB9
:10788700EC2EF00001EE6FFC0E286E7F0E296EEED7
:10789700C02AF02B6A52EC2EF0DD0E0001EC25D940
:1078A7006E000EED21DA6EEEC0DFFFEC4BED2B61C3
:1078B7000E0001E019D8B463EF3CF065EF3CF043EC
:1078C700EF3CF0000EED6F000EEC6FB551DD19D8EF
:1078D700A470EF3CF072EF3CF0A9EF3CF0B651DE3C
:1078E70019D8A479EF3CF07BEF3CF0A9EF3CF0B757
:1078F70051DF19D8A482EF3CF084EF3CF0A9EF3CAC
:10790700F0B851E019D8A48BEF3CF08DEF3CF0A90B
:10791700EF3CF0010E6DEC2FF0010E056E020E101C
:10792700EC30F0880E286E7F0E296E52EC2EF08216
:10793700800B0E2F6E260E2E6E5E0EE82EFED72EB5
:107947002EFCD72F2EFAD7E4EF3CF0010E6DEC2F6B
:10795700F0010E056E020E10EC30F04A0E286E7F15
:107967000E296E52EC2EF082820B0E2F6E260E2EF3
:107977006E5E0EE82EFED72E2EFCD72F2EFAD700DE
:107987000E0001CE6F000ECD6FCEBFD4EF3CF0CE10
:107997005109E1040ECD5DD8A0D4EF3CF0D6EF3C01
:1079A700F0D8EF3CF004EF37F0DD0ECD25D96E00AF
:1079B7000ECE21DA6E610EDF6ECD4BCE2BC8EF3CBB
:1079C700F0010E6DEC2FF082928290000E056E0191
:1079D7000E10EC30F0D20E286E7E0E296E52EC2E71
:1079E700F0010E056E010E10EC30F0960E286E7F3A
:1079F7000E296E52EC2EF0020E056E080E10EC30BA
:107A0700F01EEF3DF02DEC2EF00001EE6FFC0E287E
:107A17006E7F0E296EEEC02AF02B6A52EC2EF0B163
:107A27000E0001EC25D96E000EED21DA6EEEC0DFF7
:107A3700FFEC4BED2B610E0001B419D8B426EF3DD6
:107A4700F028EF3DF006EF3DF00B0E2F6E260E2EC1
:107A57006E5E0EE82EFED72E2EFCD72F2EFAD7B14C
:107A67000E066E000E076EDBEC33F00001E96F695E
:107A77000EE919D8A442EF3DF044EF3DF0A4EF3EE4
:107A8700F09D0E076E000E086EE9EC31F0940E07BC
:107A97006E000E086E88EC31F0450E0001806F0015
:107AA7000EE86F010EE76FE8BF63EF3DF0E851099D
:107AB700E10A0EE75DD8A063EF3DF065EF3DF067A3
:107AC700EF3DF0A5EF3DF0FF0E2E6EFF0E2F6EE798
:107AD700C030F0E8C031F02E5030262F5031229DB3
:107AE7000E3024D96E000E3120DA6E800EE725E1C4
:107AF7006E000EE821E26EDFCFE7FFFF0E2E6EFF6E
:107B07000E2F6EE7C030F0E8C031F02E5030262F30
:107B1700503122940E3024D96E000E3120DA6E09CE
:107B27000EE725326E000EE821336E800E3224E117
:107B37006E000E3320E26EDFCFE7FFE74BE82B57EF
:107B4700EF3DF07C0E936F000ED06F000ECF6FD01D
:107B5700BFB7EF3DF0D05109E1140ECF5DD8A0B704
:107B6700EF3DF0B9EF3DF0BBEF3DF0D8EF3DF0EA68
:107B7700C002F0800ECF25D96E000ED021DA6EDF5D
:107B870050036E500ED5EC2FF00001EA4BEB2B1A89
:107B97000E2E6EF80EE82EFED72E2EFCD700D00044
:107BA70001CF4BD02BABEF3DF0020E016EEA51999E
:107BB700EC2EF0FBC0ABF0FCC0ACF0F5EF3DF0AB4A
:107BC700C002F0FF0E036E500ED5EC2FF01A0E2EEA
:107BD7006EF80EE82EFED72E2EFCD700D00001AB94
:107BE7004BAC2B040E0001FB252E6E000EFC212F43
:107BF7006E2E50AB5DAC51800A306E2F50800A302C
:107C070058D8A009EF3EF00BEF3EF0E3EF3DF0FB55
:107C1700C0A9F0FCC0AAF0040EFB25D16F000EFC32
:107C270021D26FD2BF21EF3EF0D25109E1140ED11C
:107C37005DD8A021EF3EF023EF3EF025EF3EF04F59
:107C4700EF3EF0D1C002F0500EE5EC30F00001A697
:107C57006FA9C002F0A6C003F0500ED5EC2FF000BC
:107C670001A94BAA2B1A0E2E6EF80EE82EFED72E60
:107C77002EFCD700D00001D14BD22BD2BF4DEF3E07
:107C8700F0D25109E1140ED15DD8A04DEF3EF04F6F
:107C9700EF3EF025EF3EF0010E6DEC2FF0010E05E3
:107CA7006E010E10EC30F0700E286E7E0E296E52AB
:107CB700EC2EF08284000E0001ED6F000EEC6F00D9
:107CC7000EAA6F000EA96FFC0EDB25DB6FFF0EDC23
:107CD70021DC6FE107D8A0E207000E016EDB5199A6
:107CE700EC2EF0010E016E0001E15199EC2EF0002F
:107CF7000E0001D46F000ED36FD4BF8CEF3EF0D4CB
:107D07005109E1040ED35DD8A08CEF3EF08EEF3E13
:107D1700F090EF3EF00FEF38F0B10ED325D96E009B
:107D27000ED421DA6E610EDF6EDD0ED325D96E001B
:107D37000ED421DA6E610EDF6ED34BD42B80EF3E6B
:107D4700F0640EE919D8A4ABEF3EF0ADEF3EF011A9
:107D5700EF3FF0010E6DEC2FF0010E056E010E10D6
:107D6700EC30F0C80E286E7F0E296E52EC2EF00212
:107D77000E056E010E10EC30F0D30E286E7F0E2923
:107D87006E52EC2EF08282000E0001ED6F000EECB9
:107D97006F000EAA6F000EA96F000ED66F000ED5EA
:107DA7006FD6BFE0EF3EF0D65109E1040ED55DD89E
:107DB700A0E0EF3EF0E2EF3EF0E4EF3EF00FEF38E9
:107DC700F0B10ED525D96E000ED621DA6E610EDF21
:107DD7006EDD0ED525D96E000ED621DA6E610EDF67
:107DE7006ED54BD62BD4EF3EF0EE512E6E2F6A2F69
:107DF70050000AD8B402EF3FF004EF37F02E5031AD
:107E07000AD8B462EF37F0030AD8B4D2EF39F001D9
:107E17000AD8B423EF3CF004EF37F004EF37F00053
:107E2700EF00F0004578636C7573616F20526561F0
:107E37006C697A6164612061733A2000436164610F
:107E47007374726F205265616C697A61646F206127
:107E5700733A20004C6F67696E205265616C697ACE
:107E670061646F2061733A20004578636C757361B4
:107E77006F20636F6E6669726D616461004465208F
:107E87004163657373617220616F20436F6672652A
:107E970000496E666F726D652073656E686120615B
:107EA700646D696E0054656E7461746976617320E0
:107EB70045727261646173004F206C696D69746506
:107EC7002064652073656E68617300496E666F7222
:107ED7006D65207375612073656E68610041636528
:107EE70073736F20636F6E6669726D61646F0041B3
:107EF7006C65727461204C696761646F2121210090
:107F070053656E6861206361646173747261646153
:107F170000446967697465207375612073656E68CD
:107F2700610044657465637461646F2056617269AA
:107F37006173004573636F6C686572204F7063618E
:107F47006F3A0053656E686120496E636F727265A0
:107F57007461004A6120666F6920657863656469AA
:107F6700646F00436F667265204C69626572616475
:107F77006F005061726120436F6E6669726D617246
:107F87000053656E686120436F72726574610050BB
:107F9700617261204578636C7573616F005061721F
:107FA70061204C69626572617200312D43616461C1
:107FB700737472617200457373612053656E6861F3
:107FC70000457374612053656E6861004E616F20D0
:107FD700457869737465004A6120457869737465EB
:107FE70000322D4163657373617200332D457863E9
:097FF7006C75697200256300003D
:020000040020DA
:08000000FFFFFFFFFFFFFFFF00
:020000040030CA
:0E000000FF021F1EFF8385FF0FC00FE00F40A1
:00000001FF
